{
  "contractName": "HotDog",
  "abi": [
    {
      "anonymous": false,
      "inputs": [
        {
          "indexed": false,
          "internalType": "uint256",
          "name": "numberCooked",
          "type": "uint256"
        }
      ],
      "name": "HotDogCooked",
      "type": "event"
    },
    {
      "anonymous": false,
      "inputs": [
        {
          "indexed": false,
          "internalType": "uint256",
          "name": "numberEaten",
          "type": "uint256"
        }
      ],
      "name": "HotDogEaten",
      "type": "event"
    },
    {
      "inputs": [],
      "name": "availableHotDogs",
      "outputs": [
        {
          "internalType": "uint256",
          "name": "",
          "type": "uint256"
        }
      ],
      "stateMutability": "view",
      "type": "function",
      "constant": true
    },
    {
      "inputs": [
        {
          "internalType": "uint256",
          "name": "_order",
          "type": "uint256"
        }
      ],
      "name": "getHotDogs",
      "outputs": [
        {
          "internalType": "uint256",
          "name": "",
          "type": "uint256"
        }
      ],
      "stateMutability": "nonpayable",
      "type": "function"
    },
    {
      "inputs": [
        {
          "internalType": "uint256",
          "name": "_target",
          "type": "uint256"
        }
      ],
      "name": "cookHotDogs",
      "outputs": [
        {
          "internalType": "uint256",
          "name": "",
          "type": "uint256"
        }
      ],
      "stateMutability": "nonpayable",
      "type": "function"
    }
  ],
  "bytecode": "0x6080604052600a60005534801561001557600080fd5b506102f9806100256000396000f3fe608060405234801561001057600080fd5b50600436106100415760003560e01c806391521ea714610046578063e296f47b14610076578063f13131db14610094575b600080fd5b610060600480360381019061005b91906101b3565b6100c4565b60405161006d91906101ef565b60405180910390f35b61007e61011b565b60405161008b91906101ef565b60405180910390f35b6100ae60048036038101906100a991906101b3565b610121565b6040516100bb91906101ef565b60405180910390f35b6000816000546100d49190610239565b6000819055507f82f687d9fb448653fbfc4f4452a4d033c876023fb3c28e999b92157bb88e1df98260405161010991906101ef565b60405180910390a16000549050919050565b60005481565b600081600054610131919061028f565b6000819055507f5907e0c4eb6900ea167ccedcad75a331ba2f0266e179d4b9aadecc09fcfd0cb38260405161016691906101ef565b60405180910390a16000549050919050565b600080fd5b6000819050919050565b6101908161017d565b811461019b57600080fd5b50565b6000813590506101ad81610187565b92915050565b6000602082840312156101c9576101c8610178565b5b60006101d78482850161019e565b91505092915050565b6101e98161017d565b82525050565b600060208201905061020460008301846101e0565b92915050565b7f4e487b7100000000000000000000000000000000000000000000000000000000600052601160045260246000fd5b60006102448261017d565b915061024f8361017d565b9250827fffffffffffffffffffffffffffffffffffffffffffffffffffffffffffffffff038211156102845761028361020a565b5b828201905092915050565b600061029a8261017d565b91506102a58361017d565b9250828210156102b8576102b761020a565b5b82820390509291505056fea264697066735822122092672a0ea7e791dfa4de481caf34b8374a60d057bb43a012f0fee4995f5dd4ad64736f6c634300080f0033",
  "immutableReferences": {},
  "source": "pragma solidity ^0.8.15;\n\ncontract HotDog {\n    uint public availableHotDogs = 10;\n\n    event HotDogEaten(\n        uint numberEaten\n    );\n\n    event HotDogCooked(\n        uint numberCooked\n    );\n    \n    function getHotDogs(uint _order) public returns(uint){\n        availableHotDogs = availableHotDogs - _order;\n        emit HotDogEaten(_order);\n        return availableHotDogs;\n    }\n    \n    function cookHotDogs(uint _target) public returns(uint){\n        availableHotDogs = availableHotDogs + _target;\n        emit HotDogCooked(_target);\n        return availableHotDogs;\n    }\n}",
  "sourcePath": "/home/valex/workspace/contract-handler/hot-dog-contract/contracts/HotDog.sol",
  "compiler": {
    "name": "solc",
    "version": "0.8.15+commit.e14f2714.Emscripten.clang"
  },
  "schemaVersion": "3.4.8",
  "updatedAt": "2022-08-07T17:55:18.225Z",
  "networkType": "ethereum",
  "devdoc": {
    "kind": "dev",
    "methods": {},
    "version": 1
  },
  "userdoc": {
    "kind": "user",
    "methods": {},
    "version": 1
  }
}